{
  "_format": "hh-sol-artifact-1",
  "contractName": "WhiteList",
  "sourceName": "contracts/WhiteList.sol",
  "abi": [
    {
      "inputs": [
        {
          "internalType": "bytes32",
          "name": "_rootHash",
          "type": "bytes32"
        }
      ],
      "stateMutability": "nonpayable",
      "type": "constructor"
    },
    {
      "inputs": [
        {
          "internalType": "address",
          "name": "sender",
          "type": "address"
        },
        {
          "internalType": "uint256",
          "name": "tokenId",
          "type": "uint256"
        },
        {
          "internalType": "address",
          "name": "owner",
          "type": "address"
        }
      ],
      "name": "ERC721IncorrectOwner",
      "type": "error"
    },
    {
      "inputs": [
        {
          "internalType": "address",
          "name": "operator",
          "type": "address"
        },
        {
          "internalType": "uint256",
          "name": "tokenId",
          "type": "uint256"
        }
      ],
      "name": "ERC721InsufficientApproval",
      "type": "error"
    },
    {
      "inputs": [
        {
          "internalType": "address",
          "name": "approver",
          "type": "address"
        }
      ],
      "name": "ERC721InvalidApprover",
      "type": "error"
    },
    {
      "inputs": [
        {
          "internalType": "address",
          "name": "operator",
          "type": "address"
        }
      ],
      "name": "ERC721InvalidOperator",
      "type": "error"
    },
    {
      "inputs": [
        {
          "internalType": "address",
          "name": "owner",
          "type": "address"
        }
      ],
      "name": "ERC721InvalidOwner",
      "type": "error"
    },
    {
      "inputs": [
        {
          "internalType": "address",
          "name": "receiver",
          "type": "address"
        }
      ],
      "name": "ERC721InvalidReceiver",
      "type": "error"
    },
    {
      "inputs": [
        {
          "internalType": "address",
          "name": "sender",
          "type": "address"
        }
      ],
      "name": "ERC721InvalidSender",
      "type": "error"
    },
    {
      "inputs": [
        {
          "internalType": "uint256",
          "name": "tokenId",
          "type": "uint256"
        }
      ],
      "name": "ERC721NonexistentToken",
      "type": "error"
    },
    {
      "anonymous": false,
      "inputs": [
        {
          "indexed": true,
          "internalType": "address",
          "name": "owner",
          "type": "address"
        },
        {
          "indexed": true,
          "internalType": "address",
          "name": "approved",
          "type": "address"
        },
        {
          "indexed": true,
          "internalType": "uint256",
          "name": "tokenId",
          "type": "uint256"
        }
      ],
      "name": "Approval",
      "type": "event"
    },
    {
      "anonymous": false,
      "inputs": [
        {
          "indexed": true,
          "internalType": "address",
          "name": "owner",
          "type": "address"
        },
        {
          "indexed": true,
          "internalType": "address",
          "name": "operator",
          "type": "address"
        },
        {
          "indexed": false,
          "internalType": "bool",
          "name": "approved",
          "type": "bool"
        }
      ],
      "name": "ApprovalForAll",
      "type": "event"
    },
    {
      "anonymous": false,
      "inputs": [
        {
          "indexed": false,
          "internalType": "uint256",
          "name": "_fromTokenId",
          "type": "uint256"
        },
        {
          "indexed": false,
          "internalType": "uint256",
          "name": "_toTokenId",
          "type": "uint256"
        }
      ],
      "name": "BatchMetadataUpdate",
      "type": "event"
    },
    {
      "anonymous": false,
      "inputs": [
        {
          "indexed": false,
          "internalType": "uint256",
          "name": "_tokenId",
          "type": "uint256"
        }
      ],
      "name": "MetadataUpdate",
      "type": "event"
    },
    {
      "anonymous": false,
      "inputs": [
        {
          "indexed": false,
          "internalType": "address",
          "name": "to",
          "type": "address"
        },
        {
          "indexed": false,
          "internalType": "uint256",
          "name": "tokenId",
          "type": "uint256"
        }
      ],
      "name": "NftMinted",
      "type": "event"
    },
    {
      "anonymous": false,
      "inputs": [
        {
          "indexed": true,
          "internalType": "address",
          "name": "from",
          "type": "address"
        },
        {
          "indexed": true,
          "internalType": "address",
          "name": "to",
          "type": "address"
        },
        {
          "indexed": true,
          "internalType": "uint256",
          "name": "tokenId",
          "type": "uint256"
        }
      ],
      "name": "Transfer",
      "type": "event"
    },
    {
      "inputs": [
        {
          "internalType": "address",
          "name": "to",
          "type": "address"
        },
        {
          "internalType": "uint256",
          "name": "tokenId",
          "type": "uint256"
        }
      ],
      "name": "approve",
      "outputs": [],
      "stateMutability": "nonpayable",
      "type": "function"
    },
    {
      "inputs": [
        {
          "internalType": "address",
          "name": "owner",
          "type": "address"
        }
      ],
      "name": "balanceOf",
      "outputs": [
        {
          "internalType": "uint256",
          "name": "",
          "type": "uint256"
        }
      ],
      "stateMutability": "view",
      "type": "function"
    },
    {
      "inputs": [
        {
          "internalType": "uint256",
          "name": "tokenId",
          "type": "uint256"
        }
      ],
      "name": "getApproved",
      "outputs": [
        {
          "internalType": "address",
          "name": "",
          "type": "address"
        }
      ],
      "stateMutability": "view",
      "type": "function"
    },
    {
      "inputs": [
        {
          "internalType": "address",
          "name": "owner",
          "type": "address"
        },
        {
          "internalType": "address",
          "name": "operator",
          "type": "address"
        }
      ],
      "name": "isApprovedForAll",
      "outputs": [
        {
          "internalType": "bool",
          "name": "",
          "type": "bool"
        }
      ],
      "stateMutability": "view",
      "type": "function"
    },
    {
      "inputs": [
        {
          "internalType": "address",
          "name": "_to",
          "type": "address"
        },
        {
          "internalType": "string",
          "name": "uri",
          "type": "string"
        },
        {
          "internalType": "bytes32[]",
          "name": "proof",
          "type": "bytes32[]"
        }
      ],
      "name": "mintNFT",
      "outputs": [],
      "stateMutability": "nonpayable",
      "type": "function"
    },
    {
      "inputs": [],
      "name": "name",
      "outputs": [
        {
          "internalType": "string",
          "name": "",
          "type": "string"
        }
      ],
      "stateMutability": "view",
      "type": "function"
    },
    {
      "inputs": [],
      "name": "nftCount",
      "outputs": [
        {
          "internalType": "uint256",
          "name": "",
          "type": "uint256"
        }
      ],
      "stateMutability": "view",
      "type": "function"
    },
    {
      "inputs": [
        {
          "internalType": "uint256",
          "name": "tokenId",
          "type": "uint256"
        }
      ],
      "name": "ownerOf",
      "outputs": [
        {
          "internalType": "address",
          "name": "",
          "type": "address"
        }
      ],
      "stateMutability": "view",
      "type": "function"
    },
    {
      "inputs": [],
      "name": "rootHash",
      "outputs": [
        {
          "internalType": "bytes32",
          "name": "",
          "type": "bytes32"
        }
      ],
      "stateMutability": "view",
      "type": "function"
    },
    {
      "inputs": [
        {
          "internalType": "address",
          "name": "from",
          "type": "address"
        },
        {
          "internalType": "address",
          "name": "to",
          "type": "address"
        },
        {
          "internalType": "uint256",
          "name": "tokenId",
          "type": "uint256"
        }
      ],
      "name": "safeTransferFrom",
      "outputs": [],
      "stateMutability": "nonpayable",
      "type": "function"
    },
    {
      "inputs": [
        {
          "internalType": "address",
          "name": "from",
          "type": "address"
        },
        {
          "internalType": "address",
          "name": "to",
          "type": "address"
        },
        {
          "internalType": "uint256",
          "name": "tokenId",
          "type": "uint256"
        },
        {
          "internalType": "bytes",
          "name": "data",
          "type": "bytes"
        }
      ],
      "name": "safeTransferFrom",
      "outputs": [],
      "stateMutability": "nonpayable",
      "type": "function"
    },
    {
      "inputs": [
        {
          "internalType": "address",
          "name": "operator",
          "type": "address"
        },
        {
          "internalType": "bool",
          "name": "approved",
          "type": "bool"
        }
      ],
      "name": "setApprovalForAll",
      "outputs": [],
      "stateMutability": "nonpayable",
      "type": "function"
    },
    {
      "inputs": [
        {
          "internalType": "bytes4",
          "name": "interfaceId",
          "type": "bytes4"
        }
      ],
      "name": "supportsInterface",
      "outputs": [
        {
          "internalType": "bool",
          "name": "",
          "type": "bool"
        }
      ],
      "stateMutability": "view",
      "type": "function"
    },
    {
      "inputs": [],
      "name": "symbol",
      "outputs": [
        {
          "internalType": "string",
          "name": "",
          "type": "string"
        }
      ],
      "stateMutability": "view",
      "type": "function"
    },
    {
      "inputs": [
        {
          "internalType": "uint256",
          "name": "tokenId",
          "type": "uint256"
        }
      ],
      "name": "tokenURI",
      "outputs": [
        {
          "internalType": "string",
          "name": "",
          "type": "string"
        }
      ],
      "stateMutability": "view",
      "type": "function"
    },
    {
      "inputs": [
        {
          "internalType": "address",
          "name": "from",
          "type": "address"
        },
        {
          "internalType": "address",
          "name": "to",
          "type": "address"
        },
        {
          "internalType": "uint256",
          "name": "tokenId",
          "type": "uint256"
        }
      ],
      "name": "transferFrom",
      "outputs": [],
      "stateMutability": "nonpayable",
      "type": "function"
    }
  ],
  "bytecode": "0x6080604052600060085534801561001557600080fd5b50604051612c38380380612c388339818101604052810190610037919061010d565b6040518060400160405280601181526020017f47726164756174696f6e204465677265650000000000000000000000000000008152506040518060400160405280600381526020017f475244000000000000000000000000000000000000000000000000000000000081525081600090816100b2919061038a565b5080600190816100c2919061038a565b505050806007819055505061045c565b600080fd5b6000819050919050565b6100ea816100d7565b81146100f557600080fd5b50565b600081519050610107816100e1565b92915050565b600060208284031215610123576101226100d2565b5b6000610131848285016100f8565b91505092915050565b600081519050919050565b7f4e487b7100000000000000000000000000000000000000000000000000000000600052604160045260246000fd5b7f4e487b7100000000000000000000000000000000000000000000000000000000600052602260045260246000fd5b600060028204905060018216806101bb57607f821691505b6020821081036101ce576101cd610174565b5b50919050565b60008190508160005260206000209050919050565b60006020601f8301049050919050565b600082821b905092915050565b6000600883026102367fffffffffffffffffffffffffffffffffffffffffffffffffffffffffffffffff826101f9565b61024086836101f9565b95508019841693508086168417925050509392505050565b6000819050919050565b6000819050919050565b600061028761028261027d84610258565b610262565b610258565b9050919050565b6000819050919050565b6102a18361026c565b6102b56102ad8261028e565b848454610206565b825550505050565b600090565b6102ca6102bd565b6102d5818484610298565b505050565b5b818110156102f9576102ee6000826102c2565b6001810190506102db565b5050565b601f82111561033e5761030f816101d4565b610318846101e9565b81016020851015610327578190505b61033b610333856101e9565b8301826102da565b50505b505050565b600082821c905092915050565b600061036160001984600802610343565b1980831691505092915050565b600061037a8383610350565b9150826002028217905092915050565b6103938261013a565b67ffffffffffffffff8111156103ac576103ab610145565b5b6103b682546101a3565b6103c18282856102fd565b600060209050601f8311600181146103f457600084156103e2578287015190505b6103ec858261036e565b865550610454565b601f198416610402866101d4565b60005b8281101561042a57848901518255600182019150602085019450602081019050610405565b868310156104475784890151610443601f891682610350565b8355505b6001600288020188555050505b505050505050565b6127cd8061046b6000396000f3fe608060405234801561001057600080fd5b50600436106101005760003560e01c806342842e0e11610097578063a22cb46511610066578063a22cb465146102ad578063b88d4fde146102c9578063c87b56dd146102e5578063e985e9c51461031557610100565b806342842e0e146102135780636352211e1461022f57806370a082311461025f57806395d89b411461028f57610100565b8063095ea7b3116100d3578063095ea7b31461019f5780630af2c6ca146101bb5780631d80009a146101d957806323b872dd146101f757610100565b806301ffc9a71461010557806306fdde0314610135578063076a9f0d14610153578063081812fc1461016f575b600080fd5b61011f600480360381019061011a9190611a5f565b610345565b60405161012c9190611aa7565b60405180910390f35b61013d610357565b60405161014a9190611b52565b60405180910390f35b61016d60048036038101906101689190611d67565b6103e9565b005b61018960048036038101906101849190611e2d565b610513565b6040516101969190611e69565b60405180910390f35b6101b960048036038101906101b49190611e84565b61052f565b005b6101c3610545565b6040516101d09190611ed3565b60405180910390f35b6101e161054b565b6040516101ee9190611f07565b60405180910390f35b610211600480360381019061020c9190611f22565b610551565b005b61022d60048036038101906102289190611f22565b610653565b005b61024960048036038101906102449190611e2d565b610673565b6040516102569190611e69565b60405180910390f35b61027960048036038101906102749190611f75565b610685565b6040516102869190611ed3565b60405180910390f35b61029761073f565b6040516102a49190611b52565b60405180910390f35b6102c760048036038101906102c29190611fce565b6107d1565b005b6102e360048036038101906102de91906120af565b6107e7565b005b6102ff60048036038101906102fa9190611e2d565b61080c565b60405161030c9190611b52565b60405180910390f35b61032f600480360381019061032a9190612132565b61081e565b60405161033c9190611aa7565b60405180910390f35b6000610350826108b2565b9050919050565b606060008054610366906121a1565b80601f0160208091040260200160405190810160405280929190818152602001828054610392906121a1565b80156103df5780601f106103b4576101008083540402835291602001916103df565b820191906000526020600020905b8154815290600101906020018083116103c257829003601f168201915b5050505050905090565b6000336040516020016103fc919061221a565b604051602081830303815290604052805190602001209050610462838380806020026020016040519081016040528093929190818152602001838360200280828437600081840152601f19601f8201169050808301925050505050505060075483610913565b6104a1576040517f08c379a000000000000000000000000000000000000000000000000000000000815260040161049890612281565b60405180910390fd5b6104ad8560085461092a565b6104b960085485610948565b7ff2b290a76feb54be358b555507421d765609171aefa0646f109a653228ff81b8856008546040516104ec9291906122a1565b60405180910390a160086000815480929190610507906122f9565b91905055505050505050565b600061051e826109a4565b5061052882610a2c565b9050919050565b610541828261053c610a69565b610a71565b5050565b60085481565b60075481565b600073ffffffffffffffffffffffffffffffffffffffff168273ffffffffffffffffffffffffffffffffffffffff16036105c35760006040517f64a0ae920000000000000000000000000000000000000000000000000000000081526004016105ba9190611e69565b60405180910390fd5b60006105d783836105d2610a69565b610a83565b90508373ffffffffffffffffffffffffffffffffffffffff168173ffffffffffffffffffffffffffffffffffffffff161461064d578382826040517f64283d7b00000000000000000000000000000000000000000000000000000000815260040161064493929190612341565b60405180910390fd5b50505050565b61066e838383604051806020016040528060008152506107e7565b505050565b600061067e826109a4565b9050919050565b60008073ffffffffffffffffffffffffffffffffffffffff168273ffffffffffffffffffffffffffffffffffffffff16036106f85760006040517f89c62b640000000000000000000000000000000000000000000000000000000081526004016106ef9190611e69565b60405180910390fd5b600360008373ffffffffffffffffffffffffffffffffffffffff1673ffffffffffffffffffffffffffffffffffffffff168152602001908152602001600020549050919050565b60606001805461074e906121a1565b80601f016020809104026020016040519081016040528092919081815260200182805461077a906121a1565b80156107c75780601f1061079c576101008083540402835291602001916107c7565b820191906000526020600020905b8154815290600101906020018083116107aa57829003601f168201915b5050505050905090565b6107e36107dc610a69565b8383610c9d565b5050565b6107f2848484610551565b6108066107fd610a69565b85858585610e0c565b50505050565b606061081782610fbd565b9050919050565b6000600560008473ffffffffffffffffffffffffffffffffffffffff1673ffffffffffffffffffffffffffffffffffffffff16815260200190815260200160002060008373ffffffffffffffffffffffffffffffffffffffff1673ffffffffffffffffffffffffffffffffffffffff16815260200190815260200160002060009054906101000a900460ff16905092915050565b6000634906490660e01b7bffffffffffffffffffffffffffffffffffffffffffffffffffffffff1916827bffffffffffffffffffffffffffffffffffffffffffffffffffffffff1916148061090c575061090b826110d0565b5b9050919050565b60008261092085846111b2565b1490509392505050565b610944828260405180602001604052806000815250611202565b5050565b806006600084815260200190815260200160002090816109689190612524565b507ff8e1a15aba9398e019f0b49df1a4fde98ee17ae345cb5f6b5e2c27f5033e8ce7826040516109989190611ed3565b60405180910390a15050565b6000806109b083611226565b9050600073ffffffffffffffffffffffffffffffffffffffff168173ffffffffffffffffffffffffffffffffffffffff1603610a2357826040517f7e273289000000000000000000000000000000000000000000000000000000008152600401610a1a9190611ed3565b60405180910390fd5b80915050919050565b60006004600083815260200190815260200160002060009054906101000a900473ffffffffffffffffffffffffffffffffffffffff169050919050565b600033905090565b610a7e8383836001611263565b505050565b600080610a8f84611226565b9050600073ffffffffffffffffffffffffffffffffffffffff168373ffffffffffffffffffffffffffffffffffffffff1614610ad157610ad0818486611428565b5b600073ffffffffffffffffffffffffffffffffffffffff168173ffffffffffffffffffffffffffffffffffffffff1614610b6257610b13600085600080611263565b6001600360008373ffffffffffffffffffffffffffffffffffffffff1673ffffffffffffffffffffffffffffffffffffffff168152602001908152602001600020600082825403925050819055505b600073ffffffffffffffffffffffffffffffffffffffff168573ffffffffffffffffffffffffffffffffffffffff1614610be5576001600360008773ffffffffffffffffffffffffffffffffffffffff1673ffffffffffffffffffffffffffffffffffffffff168152602001908152602001600020600082825401925050819055505b846002600086815260200190815260200160002060006101000a81548173ffffffffffffffffffffffffffffffffffffffff021916908373ffffffffffffffffffffffffffffffffffffffff160217905550838573ffffffffffffffffffffffffffffffffffffffff168273ffffffffffffffffffffffffffffffffffffffff167fddf252ad1be2c89b69c2b068fc378daa952ba7f163c4a11628f55a4df523b3ef60405160405180910390a4809150509392505050565b600073ffffffffffffffffffffffffffffffffffffffff168273ffffffffffffffffffffffffffffffffffffffff1603610d0e57816040517f5b08ba18000000000000000000000000000000000000000000000000000000008152600401610d059190611e69565b60405180910390fd5b80600560008573ffffffffffffffffffffffffffffffffffffffff1673ffffffffffffffffffffffffffffffffffffffff16815260200190815260200160002060008473ffffffffffffffffffffffffffffffffffffffff1673ffffffffffffffffffffffffffffffffffffffff16815260200190815260200160002060006101000a81548160ff0219169083151502179055508173ffffffffffffffffffffffffffffffffffffffff168373ffffffffffffffffffffffffffffffffffffffff167f17307eab39ab6107e8899845ad3d59bd9653f200f220920489ca2b5937696c3183604051610dff9190611aa7565b60405180910390a3505050565b60008373ffffffffffffffffffffffffffffffffffffffff163b1115610fb6578273ffffffffffffffffffffffffffffffffffffffff1663150b7a02868685856040518563ffffffff1660e01b8152600401610e6b949392919061264b565b6020604051808303816000875af1925050508015610ea757506040513d601f19601f82011682018060405250810190610ea491906126ac565b60015b610f2b573d8060008114610ed7576040519150601f19603f3d011682016040523d82523d6000602084013e610edc565b606091505b506000815103610f2357836040517f64a0ae92000000000000000000000000000000000000000000000000000000008152600401610f1a9190611e69565b60405180910390fd5b805181602001fd5b63150b7a0260e01b7bffffffffffffffffffffffffffffffffffffffffffffffffffffffff1916817bffffffffffffffffffffffffffffffffffffffffffffffffffffffff191614610fb457836040517f64a0ae92000000000000000000000000000000000000000000000000000000008152600401610fab9190611e69565b60405180910390fd5b505b5050505050565b6060610fc8826109a4565b506000600660008481526020019081526020016000208054610fe9906121a1565b80601f0160208091040260200160405190810160405280929190818152602001828054611015906121a1565b80156110625780601f1061103757610100808354040283529160200191611062565b820191906000526020600020905b81548152906001019060200180831161104557829003601f168201915b5050505050905060006110736114ec565b905060008151036110885781925050506110cb565b6000825111156110bd5780826040516020016110a5929190612715565b604051602081830303815290604052925050506110cb565b6110c684611503565b925050505b919050565b60007f80ac58cd000000000000000000000000000000000000000000000000000000007bffffffffffffffffffffffffffffffffffffffffffffffffffffffff1916827bffffffffffffffffffffffffffffffffffffffffffffffffffffffff1916148061119b57507f5b5e139f000000000000000000000000000000000000000000000000000000007bffffffffffffffffffffffffffffffffffffffffffffffffffffffff1916827bffffffffffffffffffffffffffffffffffffffffffffffffffffffff1916145b806111ab57506111aa8261156c565b5b9050919050565b60008082905060005b84518110156111f7576111e8828683815181106111db576111da612739565b5b60200260200101516115d6565b915080806001019150506111bb565b508091505092915050565b61120c8383611601565b611221611217610a69565b6000858585610e0c565b505050565b60006002600083815260200190815260200160002060009054906101000a900473ffffffffffffffffffffffffffffffffffffffff169050919050565b808061129c5750600073ffffffffffffffffffffffffffffffffffffffff168273ffffffffffffffffffffffffffffffffffffffff1614155b156113d05760006112ac846109a4565b9050600073ffffffffffffffffffffffffffffffffffffffff168373ffffffffffffffffffffffffffffffffffffffff161415801561131757508273ffffffffffffffffffffffffffffffffffffffff168173ffffffffffffffffffffffffffffffffffffffff1614155b801561132a5750611328818461081e565b155b1561136c57826040517fa9fbf51f0000000000000000000000000000000000000000000000000000000081526004016113639190611e69565b60405180910390fd5b81156113ce57838573ffffffffffffffffffffffffffffffffffffffff168273ffffffffffffffffffffffffffffffffffffffff167f8c5be1e5ebec7d5bd14f71427d1e84f3dd0314c0f7b2291e5b200ac8c7c3b92560405160405180910390a45b505b836004600085815260200190815260200160002060006101000a81548173ffffffffffffffffffffffffffffffffffffffff021916908373ffffffffffffffffffffffffffffffffffffffff16021790555050505050565b6114338383836116fa565b6114e757600073ffffffffffffffffffffffffffffffffffffffff168373ffffffffffffffffffffffffffffffffffffffff16036114a857806040517f7e27328900000000000000000000000000000000000000000000000000000000815260040161149f9190611ed3565b60405180910390fd5b81816040517f177e802f0000000000000000000000000000000000000000000000000000000081526004016114de9291906122a1565b60405180910390fd5b505050565b606060405180602001604052806000815250905090565b606061150e826109a4565b5060006115196114ec565b905060008151116115395760405180602001604052806000815250611564565b80611543846117bb565b604051602001611554929190612715565b6040516020818303038152906040525b915050919050565b60007f01ffc9a7000000000000000000000000000000000000000000000000000000007bffffffffffffffffffffffffffffffffffffffffffffffffffffffff1916827bffffffffffffffffffffffffffffffffffffffffffffffffffffffff1916149050919050565b60008183106115ee576115e98284611889565b6115f9565b6115f88383611889565b5b905092915050565b600073ffffffffffffffffffffffffffffffffffffffff168273ffffffffffffffffffffffffffffffffffffffff16036116735760006040517f64a0ae9200000000000000000000000000000000000000000000000000000000815260040161166a9190611e69565b60405180910390fd5b600061168183836000610a83565b9050600073ffffffffffffffffffffffffffffffffffffffff168173ffffffffffffffffffffffffffffffffffffffff16146116f55760006040517f73c6ac6e0000000000000000000000000000000000000000000000000000000081526004016116ec9190611e69565b60405180910390fd5b505050565b60008073ffffffffffffffffffffffffffffffffffffffff168373ffffffffffffffffffffffffffffffffffffffff16141580156117b257508273ffffffffffffffffffffffffffffffffffffffff168473ffffffffffffffffffffffffffffffffffffffff1614806117735750611772848461081e565b5b806117b157508273ffffffffffffffffffffffffffffffffffffffff1661179983610a2c565b73ffffffffffffffffffffffffffffffffffffffff16145b5b90509392505050565b6060600060016117ca846118a0565b01905060008167ffffffffffffffff8111156117e9576117e8611bdc565b5b6040519080825280601f01601f19166020018201604052801561181b5781602001600182028036833780820191505090505b509050600082602001820190505b60011561187e578080600190039150507f3031323334353637383961626364656600000000000000000000000000000000600a86061a8153600a858161187257611871612768565b5b04945060008503611829575b819350505050919050565b600082600052816020526040600020905092915050565b600080600090507a184f03e93ff9f4daa797ed6e38ed64bf6a1f01000000000000000083106118fe577a184f03e93ff9f4daa797ed6e38ed64bf6a1f01000000000000000083816118f4576118f3612768565b5b0492506040810190505b6d04ee2d6d415b85acef8100000000831061193b576d04ee2d6d415b85acef8100000000838161193157611930612768565b5b0492506020810190505b662386f26fc10000831061196a57662386f26fc1000083816119605761195f612768565b5b0492506010810190505b6305f5e1008310611993576305f5e100838161198957611988612768565b5b0492506008810190505b61271083106119b85761271083816119ae576119ad612768565b5b0492506004810190505b606483106119db57606483816119d1576119d0612768565b5b0492506002810190505b600a83106119ea576001810190505b80915050919050565b6000604051905090565b600080fd5b600080fd5b60007fffffffff0000000000000000000000000000000000000000000000000000000082169050919050565b611a3c81611a07565b8114611a4757600080fd5b50565b600081359050611a5981611a33565b92915050565b600060208284031215611a7557611a746119fd565b5b6000611a8384828501611a4a565b91505092915050565b60008115159050919050565b611aa181611a8c565b82525050565b6000602082019050611abc6000830184611a98565b92915050565b600081519050919050565b600082825260208201905092915050565b60005b83811015611afc578082015181840152602081019050611ae1565b60008484015250505050565b6000601f19601f8301169050919050565b6000611b2482611ac2565b611b2e8185611acd565b9350611b3e818560208601611ade565b611b4781611b08565b840191505092915050565b60006020820190508181036000830152611b6c8184611b19565b905092915050565b600073ffffffffffffffffffffffffffffffffffffffff82169050919050565b6000611b9f82611b74565b9050919050565b611baf81611b94565b8114611bba57600080fd5b50565b600081359050611bcc81611ba6565b92915050565b600080fd5b600080fd5b7f4e487b7100000000000000000000000000000000000000000000000000000000600052604160045260246000fd5b611c1482611b08565b810181811067ffffffffffffffff82111715611c3357611c32611bdc565b5b80604052505050565b6000611c466119f3565b9050611c528282611c0b565b919050565b600067ffffffffffffffff821115611c7257611c71611bdc565b5b611c7b82611b08565b9050602081019050919050565b82818337600083830152505050565b6000611caa611ca584611c57565b611c3c565b905082815260208101848484011115611cc657611cc5611bd7565b5b611cd1848285611c88565b509392505050565b600082601f830112611cee57611ced611bd2565b5b8135611cfe848260208601611c97565b91505092915050565b600080fd5b600080fd5b60008083601f840112611d2757611d26611bd2565b5b8235905067ffffffffffffffff811115611d4457611d43611d07565b5b602083019150836020820283011115611d6057611d5f611d0c565b5b9250929050565b60008060008060608587031215611d8157611d806119fd565b5b6000611d8f87828801611bbd565b945050602085013567ffffffffffffffff811115611db057611daf611a02565b5b611dbc87828801611cd9565b935050604085013567ffffffffffffffff811115611ddd57611ddc611a02565b5b611de987828801611d11565b925092505092959194509250565b6000819050919050565b611e0a81611df7565b8114611e1557600080fd5b50565b600081359050611e2781611e01565b92915050565b600060208284031215611e4357611e426119fd565b5b6000611e5184828501611e18565b91505092915050565b611e6381611b94565b82525050565b6000602082019050611e7e6000830184611e5a565b92915050565b60008060408385031215611e9b57611e9a6119fd565b5b6000611ea985828601611bbd565b9250506020611eba85828601611e18565b9150509250929050565b611ecd81611df7565b82525050565b6000602082019050611ee86000830184611ec4565b92915050565b6000819050919050565b611f0181611eee565b82525050565b6000602082019050611f1c6000830184611ef8565b92915050565b600080600060608486031215611f3b57611f3a6119fd565b5b6000611f4986828701611bbd565b9350506020611f5a86828701611bbd565b9250506040611f6b86828701611e18565b9150509250925092565b600060208284031215611f8b57611f8a6119fd565b5b6000611f9984828501611bbd565b91505092915050565b611fab81611a8c565b8114611fb657600080fd5b50565b600081359050611fc881611fa2565b92915050565b60008060408385031215611fe557611fe46119fd565b5b6000611ff385828601611bbd565b925050602061200485828601611fb9565b9150509250929050565b600067ffffffffffffffff82111561202957612028611bdc565b5b61203282611b08565b9050602081019050919050565b600061205261204d8461200e565b611c3c565b90508281526020810184848401111561206e5761206d611bd7565b5b612079848285611c88565b509392505050565b600082601f83011261209657612095611bd2565b5b81356120a684826020860161203f565b91505092915050565b600080600080608085870312156120c9576120c86119fd565b5b60006120d787828801611bbd565b94505060206120e887828801611bbd565b93505060406120f987828801611e18565b925050606085013567ffffffffffffffff81111561211a57612119611a02565b5b61212687828801612081565b91505092959194509250565b60008060408385031215612149576121486119fd565b5b600061215785828601611bbd565b925050602061216885828601611bbd565b9150509250929050565b7f4e487b7100000000000000000000000000000000000000000000000000000000600052602260045260246000fd5b600060028204905060018216806121b957607f821691505b6020821081036121cc576121cb612172565b5b50919050565b60008160601b9050919050565b60006121ea826121d2565b9050919050565b60006121fc826121df565b9050919050565b61221461220f82611b94565b6121f1565b82525050565b60006122268284612203565b60148201915081905092915050565b7f4e6f742057686974654c69737465642041646472657373000000000000000000600082015250565b600061226b601783611acd565b915061227682612235565b602082019050919050565b6000602082019050818103600083015261229a8161225e565b9050919050565b60006040820190506122b66000830185611e5a565b6122c36020830184611ec4565b9392505050565b7f4e487b7100000000000000000000000000000000000000000000000000000000600052601160045260246000fd5b600061230482611df7565b91507fffffffffffffffffffffffffffffffffffffffffffffffffffffffffffffffff8203612336576123356122ca565b5b600182019050919050565b60006060820190506123566000830186611e5a565b6123636020830185611ec4565b6123706040830184611e5a565b949350505050565b60008190508160005260206000209050919050565b60006020601f8301049050919050565b600082821b905092915050565b6000600883026123da7fffffffffffffffffffffffffffffffffffffffffffffffffffffffffffffffff8261239d565b6123e4868361239d565b95508019841693508086168417925050509392505050565b6000819050919050565b600061242161241c61241784611df7565b6123fc565b611df7565b9050919050565b6000819050919050565b61243b83612406565b61244f61244782612428565b8484546123aa565b825550505050565b600090565b612464612457565b61246f818484612432565b505050565b5b818110156124935761248860008261245c565b600181019050612475565b5050565b601f8211156124d8576124a981612378565b6124b28461238d565b810160208510156124c1578190505b6124d56124cd8561238d565b830182612474565b50505b505050565b600082821c905092915050565b60006124fb600019846008026124dd565b1980831691505092915050565b600061251483836124ea565b9150826002028217905092915050565b61252d82611ac2565b67ffffffffffffffff81111561254657612545611bdc565b5b61255082546121a1565b61255b828285612497565b600060209050601f83116001811461258e576000841561257c578287015190505b6125868582612508565b8655506125ee565b601f19841661259c86612378565b60005b828110156125c45784890151825560018201915060208501945060208101905061259f565b868310156125e157848901516125dd601f8916826124ea565b8355505b6001600288020188555050505b505050505050565b600081519050919050565b600082825260208201905092915050565b600061261d826125f6565b6126278185612601565b9350612637818560208601611ade565b61264081611b08565b840191505092915050565b60006080820190506126606000830187611e5a565b61266d6020830186611e5a565b61267a6040830185611ec4565b818103606083015261268c8184612612565b905095945050505050565b6000815190506126a681611a33565b92915050565b6000602082840312156126c2576126c16119fd565b5b60006126d084828501612697565b91505092915050565b600081905092915050565b60006126ef82611ac2565b6126f981856126d9565b9350612709818560208601611ade565b80840191505092915050565b600061272182856126e4565b915061272d82846126e4565b91508190509392505050565b7f4e487b7100000000000000000000000000000000000000000000000000000000600052603260045260246000fd5b7f4e487b7100000000000000000000000000000000000000000000000000000000600052601260045260246000fdfea2646970667358221220887ca25dc15d276cd0d4e502d1851a934a520e4c31e81d48b0aed02c9d80aa3c64736f6c634300081b0033",
  "linkReferences": {},
  "deployedLinkReferences": {}
}